{
  "contractName": "Payment",
  "abi": [
    {
      "inputs": [],
      "stateMutability": "nonpayable",
      "type": "constructor"
    },
    {
      "anonymous": false,
      "inputs": [
        {
          "indexed": false,
          "internalType": "uint256",
          "name": "message",
          "type": "uint256"
        }
      ],
      "name": "Debug",
      "type": "event"
    },
    {
      "inputs": [
        {
          "internalType": "uint256",
          "name": "",
          "type": "uint256"
        }
      ],
      "name": "userNames",
      "outputs": [
        {
          "internalType": "string",
          "name": "",
          "type": "string"
        }
      ],
      "stateMutability": "view",
      "type": "function",
      "constant": true
    },
    {
      "inputs": [
        {
          "internalType": "uint256",
          "name": "user_id",
          "type": "uint256"
        },
        {
          "internalType": "string",
          "name": "user_name",
          "type": "string"
        }
      ],
      "name": "registerUser",
      "outputs": [
        {
          "internalType": "bool",
          "name": "",
          "type": "bool"
        }
      ],
      "stateMutability": "nonpayable",
      "type": "function"
    },
    {
      "inputs": [
        {
          "internalType": "uint256",
          "name": "user_id_1",
          "type": "uint256"
        },
        {
          "internalType": "uint256",
          "name": "user_id_2",
          "type": "uint256"
        },
        {
          "internalType": "uint256",
          "name": "init_balance",
          "type": "uint256"
        }
      ],
      "name": "createAcc",
      "outputs": [],
      "stateMutability": "nonpayable",
      "type": "function"
    },
    {
      "inputs": [
        {
          "internalType": "uint256",
          "name": "start",
          "type": "uint256"
        },
        {
          "internalType": "uint256",
          "name": "end",
          "type": "uint256"
        }
      ],
      "name": "sendAmount",
      "outputs": [
        {
          "internalType": "uint256[]",
          "name": "",
          "type": "uint256[]"
        }
      ],
      "stateMutability": "nonpayable",
      "type": "function"
    },
    {
      "inputs": [
        {
          "internalType": "uint256",
          "name": "user_id_1",
          "type": "uint256"
        },
        {
          "internalType": "uint256",
          "name": "user_id_2",
          "type": "uint256"
        }
      ],
      "name": "closeAccount",
      "outputs": [
        {
          "internalType": "bool",
          "name": "",
          "type": "bool"
        }
      ],
      "stateMutability": "nonpayable",
      "type": "function"
    }
  ],
  "bytecode": "0x608060405234801561001057600080fd5b5060008081905550611841806100276000396000f3fe608060405234801561001057600080fd5b50600436106100575760003560e01c80631c57333e1461005c5780634ebd3aea1461008c5780635db9506e146100bc578063b5483481146100ec578063bd45d6eb14610108575b600080fd5b61007660048036038101906100719190611033565b610138565b60405161008391906110aa565b60405180910390f35b6100a660048036038101906100a191906110c5565b6101af565b6040516100b39190611171565b60405180910390f35b6100d660048036038101906100d19190611193565b61024f565b6040516100e39190611291565b60405180910390f35b610106600480360381019061010191906112b3565b610a3a565b005b610122600480360381019061011d9190611193565b610b0d565b60405161012f91906110aa565b60405180910390f35b60008060016000858152602001908152602001600020805461015990611335565b9050111561016a57600090506101a9565b8160016000858152602001908152602001600020908161018a9190611512565b50600160008082825461019d9190611613565b92505081905550600190505b92915050565b600160205280600052604060002060009150905080546101ce90611335565b80601f01602080910402602001604051908101604052809291908181526020018280546101fa90611335565b80156102475780601f1061021c57610100808354040283529160200191610247565b820191906000526020600020905b81548152906001019060200180831161022a57829003601f168201915b505050505081565b6060818303610293576040517f08c379a000000000000000000000000000000000000000000000000000000000815260040161028a906116b9565b60405180910390fd5b60005b6000548110156102fa57620186a0600360008381526020019081526020016000208190555060006004600083815260200190815260200160002060006101000a81548160ff02191690831515021790555080806102f2906116d9565b915050610296565b506000600360008581526020019081526020016000208190555060016004600085815260200190815260200160002060006101000a81548160ff0219169083151502179055506000805467ffffffffffffffff81111561035d5761035c610f08565b5b60405190808252806020026020018201604052801561038b5781602001602082028036833780820191505090505b5090506000805467ffffffffffffffff8111156103ab576103aa610f08565b5b6040519080825280602002602001820160405280156103d95781602001602082028036833780820191505090505b509050600080868482806103ec906116d9565b9350815181106103ff576103fe611721565b5b6020026020010181815250505b808214610999576000848380610421906116d9565b94508151811061043457610433611721565b5b6020026020010151905060005b600260008381526020019081526020016000208054905081101561099257600060026000848152602001908152602001600020828154811061048657610485611721565b5b90600052602060002090600202016000015490506004600082815260200190815260200160002060009054906101000a900460ff1661056f5760016004600083815260200190815260200160002060006101000a81548160ff0219169083151502179055506001600360008581526020019081526020016000205461050b9190611613565b60036000838152602001908152602001600020819055508286828151811061053657610535611721565b5b6020026020010181815250508087858061054f906116d9565b96508151811061056257610561611721565b5b6020026020010181815250505b88810361097e576000600160036000848152602001908152602001600020546105989190611613565b67ffffffffffffffff8111156105b1576105b0610f08565b5b6040519080825280602002602001820160405280156105df5781602001602082028036833780820191505090505b5090506000600360008481526020019081526020016000205490508a82828151811061060e5761060d611721565b5b6020026020010181815250505b600081111561069757808061062f90611750565b91505087826001836106419190611613565b8151811061065257610651611721565b5b60200260200101518151811061066b5761066a611721565b5b602002602001015182828151811061068657610685611721565b5b60200260200101818152505061061b565b60008251116106a9576106a8611779565b5b6000805b600184516106bb91906117a8565b8110156109085760006001826106d19190611613565b905060008583815181106106e8576106e7611721565b5b60200260200101519050600086838151811061070757610706611721565b5b6020026020010151905060005b600260008481526020019081526020016000208054905081101561081c578160026000858152602001908152602001600020828154811061075857610757611721565b5b9060005260206000209060020201600001540361080957600060026000858152602001908152602001600020828154811061079657610795611721565b5b906000526020600020906002020160010154036107b6576001955061081c565b60016002600085815260200190815260200160002082815481106107dd576107dc611721565b5b906000526020600020906002020160010160008282546107fd91906117a8565b9250508190555061081c565b8080610814906116d9565b915050610714565b506001850361082d57505050610908565b60005b60026000838152602001908152602001600020805490508110156108f1578260026000848152602001908152602001600020828154811061087457610873611721565b5b906000526020600020906002020160000154036108de5760016002600084815260200190815260200160002082815481106108b2576108b1611721565b5b906000526020600020906002020160010160008282546108d29190611613565b925050819055506108f1565b80806108e9906116d9565b915050610830565b505050508080610900906116d9565b9150506106ad565b506001810361096c57600067ffffffffffffffff81111561092c5761092b610f08565b5b60405190808252806020026020018201604052801561095a5781602001602082028036833780820191505090505b509a5050505050505050505050610a34565b829a5050505050505050505050610a34565b50808061098a906116d9565b915050610441565b505061040c565b6000600267ffffffffffffffff8111156109b6576109b5610f08565b5b6040519080825280602002602001820160405280156109e45781602001602082028036833780820191505090505b5090506002816000815181106109fd576109fc611721565b5b602002602001018181525050600281600181518110610a1f57610a1e611721565b5b60200260200101818152505080955050505050505b92915050565b6002600084815260200190815260200160002060405180604001604052808481526020018381525090806001815401808255809150506001900390600052602060002090600202016000909190919091506000820151816000015560208201518160010155505060026000838152602001908152602001600020604051806040016040528085815260200183815250908060018154018082558091505060019003906000526020600020906002020160009091909190915060008201518160000155602082015181600101555050505050565b600080600160008581526020019081526020016000208054610b2e90611335565b905003610b3e5760009050610e9d565b6000600160008481526020019081526020016000208054610b5e90611335565b905003610b6e5760009050610e9d565b60005b6002600085815260200190815260200160002080549050811015610d025782600260008681526020019081526020016000208281548110610bb557610bb4611721565b5b90600052602060002090600202016000015403610cbc576002600085815260200190815260200160002060016002600087815260200190815260200160002080549050610c0291906117a8565b81548110610c1357610c12611721565b5b9060005260206000209060020201600260008681526020019081526020016000208281548110610c4657610c45611721565b5b9060005260206000209060020201600082015481600001556001820154816001015590505060026000858152602001908152602001600020805480610c8e57610c8d6117dc565b5b6001900381819060005260206000209060020201600080820160009055600182016000905550509055610d02565b60016002600086815260200190815260200160002080549050610cdf91906117a8565b8103610cef576000915050610e9d565b8080610cfa906116d9565b915050610b71565b5060005b6002600084815260200190815260200160002080549050811015610e975783600260008581526020019081526020016000208281548110610d4a57610d49611721565b5b90600052602060002090600202016000015403610e51576002600084815260200190815260200160002060016002600086815260200190815260200160002080549050610d9791906117a8565b81548110610da857610da7611721565b5b9060005260206000209060020201600260008581526020019081526020016000208281548110610ddb57610dda611721565b5b9060005260206000209060020201600082015481600001556001820154816001015590505060026000848152602001908152602001600020805480610e2357610e226117dc565b5b6001900381819060005260206000209060020201600080820160009055600182016000905550509055610e97565b60016002600085815260200190815260200160002080549050610e7491906117a8565b8103610e84576000915050610e9d565b8080610e8f906116d9565b915050610d06565b50600190505b92915050565b6000604051905090565b600080fd5b600080fd5b6000819050919050565b610eca81610eb7565b8114610ed557600080fd5b50565b600081359050610ee781610ec1565b92915050565b600080fd5b600080fd5b6000601f19601f8301169050919050565b7f4e487b7100000000000000000000000000000000000000000000000000000000600052604160045260246000fd5b610f4082610ef7565b810181811067ffffffffffffffff82111715610f5f57610f5e610f08565b5b80604052505050565b6000610f72610ea3565b9050610f7e8282610f37565b919050565b600067ffffffffffffffff821115610f9e57610f9d610f08565b5b610fa782610ef7565b9050602081019050919050565b82818337600083830152505050565b6000610fd6610fd184610f83565b610f68565b905082815260208101848484011115610ff257610ff1610ef2565b5b610ffd848285610fb4565b509392505050565b600082601f83011261101a57611019610eed565b5b813561102a848260208601610fc3565b91505092915050565b6000806040838503121561104a57611049610ead565b5b600061105885828601610ed8565b925050602083013567ffffffffffffffff81111561107957611078610eb2565b5b61108585828601611005565b9150509250929050565b60008115159050919050565b6110a48161108f565b82525050565b60006020820190506110bf600083018461109b565b92915050565b6000602082840312156110db576110da610ead565b5b60006110e984828501610ed8565b91505092915050565b600081519050919050565b600082825260208201905092915050565b60005b8381101561112c578082015181840152602081019050611111565b60008484015250505050565b6000611143826110f2565b61114d81856110fd565b935061115d81856020860161110e565b61116681610ef7565b840191505092915050565b6000602082019050818103600083015261118b8184611138565b905092915050565b600080604083850312156111aa576111a9610ead565b5b60006111b885828601610ed8565b92505060206111c985828601610ed8565b9150509250929050565b600081519050919050565b600082825260208201905092915050565b6000819050602082019050919050565b61120881610eb7565b82525050565b600061121a83836111ff565b60208301905092915050565b6000602082019050919050565b600061123e826111d3565b61124881856111de565b9350611253836111ef565b8060005b8381101561128457815161126b888261120e565b975061127683611226565b925050600181019050611257565b5085935050505092915050565b600060208201905081810360008301526112ab8184611233565b905092915050565b6000806000606084860312156112cc576112cb610ead565b5b60006112da86828701610ed8565b93505060206112eb86828701610ed8565b92505060406112fc86828701610ed8565b9150509250925092565b7f4e487b7100000000000000000000000000000000000000000000000000000000600052602260045260246000fd5b6000600282049050600182168061134d57607f821691505b6020821081036113605761135f611306565b5b50919050565b60008190508160005260206000209050919050565b60006020601f8301049050919050565b600082821b905092915050565b6000600883026113c87fffffffffffffffffffffffffffffffffffffffffffffffffffffffffffffffff8261138b565b6113d2868361138b565b95508019841693508086168417925050509392505050565b6000819050919050565b600061140f61140a61140584610eb7565b6113ea565b610eb7565b9050919050565b6000819050919050565b611429836113f4565b61143d61143582611416565b848454611398565b825550505050565b600090565b611452611445565b61145d818484611420565b505050565b5b818110156114815761147660008261144a565b600181019050611463565b5050565b601f8211156114c65761149781611366565b6114a08461137b565b810160208510156114af578190505b6114c36114bb8561137b565b830182611462565b50505b505050565b600082821c905092915050565b60006114e9600019846008026114cb565b1980831691505092915050565b600061150283836114d8565b9150826002028217905092915050565b61151b826110f2565b67ffffffffffffffff81111561153457611533610f08565b5b61153e8254611335565b611549828285611485565b600060209050601f83116001811461157c576000841561156a578287015190505b61157485826114f6565b8655506115dc565b601f19841661158a86611366565b60005b828110156115b25784890151825560018201915060208501945060208101905061158d565b868310156115cf57848901516115cb601f8916826114d8565b8355505b6001600288020188555050505b505050505050565b7f4e487b7100000000000000000000000000000000000000000000000000000000600052601160045260246000fd5b600061161e82610eb7565b915061162983610eb7565b9250828201905080821115611641576116406115e4565b5b92915050565b7f537461727420616e6420656e64206e6f6465732063616e6e6f7420626520746860008201527f652073616d650000000000000000000000000000000000000000000000000000602082015250565b60006116a36026836110fd565b91506116ae82611647565b604082019050919050565b600060208201905081810360008301526116d281611696565b9050919050565b60006116e482610eb7565b91507fffffffffffffffffffffffffffffffffffffffffffffffffffffffffffffffff8203611716576117156115e4565b5b600182019050919050565b7f4e487b7100000000000000000000000000000000000000000000000000000000600052603260045260246000fd5b600061175b82610eb7565b91506000820361176e5761176d6115e4565b5b600182039050919050565b7f4e487b7100000000000000000000000000000000000000000000000000000000600052600160045260246000fd5b60006117b382610eb7565b91506117be83610eb7565b92508282039050818111156117d6576117d56115e4565b5b92915050565b7f4e487b7100000000000000000000000000000000000000000000000000000000600052603160045260246000fdfea2646970667358221220d66fe14df4be33e94c276a5845e60390b512c8b5282f89926a9fa534b670bec664736f6c63430008130033",
  "immutableReferences": {},
  "source": "// SPDX-License-Identifier: MIT\npragma solidity >=0.4.22 <0.9.0;\n\n\n\n\n\ncontract Payment {\n  uint numUsers;\n  event Debug(uint message);\n  mapping (uint => string) public userNames;\n  struct Edge {\n    uint dest;\n    uint bal;\n  }\n\n  mapping(uint => Edge[]) private adjList;\n mapping(uint => uint) private dist;\n    mapping(uint => bool) private visited;\n    // mapping(uint => uint) private prev; \n  constructor() {\n    numUsers = 0;\n  }\n\n  function registerUser(uint user_id, string memory user_name) public returns (bool){\n    if(bytes(userNames[user_id]).length > 0){\n      return false;\n    }\n    userNames[user_id] = user_name;\n    numUsers+=1;\n    return true;\n  } \n\n  function createAcc(uint user_id_1, uint user_id_2, uint init_balance) public {\n\n    adjList[user_id_1].push(Edge({dest: user_id_2, bal: init_balance}));\n    adjList[user_id_2].push(Edge({dest: user_id_1, bal: init_balance}));\n  }\n\nfunction sendAmount(uint start, uint end) public returns (uint[] memory) {\n    require(start != end, \"Start and end nodes cannot be the same\");\n    \n    for (uint i = 0; i < numUsers; i++) {\n        dist[i] = 100000; // set initial distances to infinity\n        visited[i] = false; // mark all nodes as unvisited\n    }\n    \n    dist[start] = 0; // set distance of start node to zero\n    visited[start] = true; // mark start node as visited\n    \n    uint[] memory queue = new uint[](numUsers);\n    uint[] memory prev = new uint[](numUsers);\n    uint front = 0;\n    uint rear = 0;\n    \n    queue[rear++] = start; // add start node to the queue\n    \n    while (front != rear) {\n        uint curr = queue[front++]; // dequeue the front node\n        \n        for (uint i = 0; i < adjList[curr].length; i++) {\n            uint neighbor = adjList[curr][i].dest;\n            \n            if (!visited[neighbor]) {\n                visited[neighbor] = true; // mark neighbor as visited\n                dist[neighbor] = dist[curr] + 1; // update distance to neighbor\n                prev[neighbor] = curr; // update previous node for neighbor\n                queue[rear++] = neighbor; // enqueue neighbor\n            }\n            \n            if (neighbor == end) {\n                // shortest path found, construct path and return it\n                uint[] memory path = new uint[](dist[neighbor] + 1);\n                uint j = dist[neighbor];\n                path[j] = end;\n                \n                while (j > 0) {\n                    j--;\n                    path[j] = prev[path[j+1]];\n                }\n                \n                assert(path.length > 0);\n                uint flag1=0;\n                for (uint i1=0; i1<path.length-1; i1++) {\n                    uint j1 = i1+1;\n                    uint ii = path[i1];\n                    uint jj = path[j1];\n                    for (uint k=0; k<adjList[ii].length; k++) {\n                        if (adjList[ii][k].dest == jj) {\n                            if(adjList[ii][k].bal==0){\n                              flag1=1;\n                              break;\n                            }\n                            adjList[ii][k].bal -= 1;\n                            break;\n                        }\n                    }\n                    if(flag1==1){\n                      break;\n                    }\n                   \n                    for (uint k=0; k<adjList[jj].length; k++) {\n                        if (adjList[jj][k].dest == ii) {\n                            adjList[jj][k].bal += 1;\n                            break;\n                        }\n                    }\n                }\n                if(flag1==1){\n                  //path[dist[neighbor]+1]=75;\n                  return new uint[](0);\n                }\n                return path;\n            }\n        }\n    }\n\n    \n    \n    uint[] memory path1 = new uint[](2);\n    path1[0]=2;\n    path1[1]=2;\n    return path1;\n}\n\n\n\n\n//   function sendAmount(uint user_id_1, uint user_id_2) public returns (uint[] memory) {\n//     uint[] memory path;\n//     if (user_id_1 == user_id_2) {\n//         path = new uint[](1);\n//         path[0] = user_id_1;\n//         return path;\n//     }\n//     for (uint i = 0; i < numUsers; i++) {\n//         dist[i] = 2**256-1;\n//         visited[i] = false;\n//     }\n//     dist[user_id_1] = 0;\n//     visited[user_id_1] = true;\n//     uint[] memory queue = new uint[](numUsers);\n//     uint queue_front = 0;\n//     uint queue_back = 0;\n//     queue[queue_back++] = user_id_1;\n//     while (queue_front != queue_back) {\n//         uint u = queue[queue_front++];\n//         for (uint i = 0; i < adjList[u].length; i++) {\n//             Edge memory e = adjList[u][i];\n//             uint v = e.dest;\n//             uint alt = dist[u] + e.bal;\n//             if (alt < dist[v]) {\n//                 dist[v] = alt;\n//                 prev[v] = u;\n//                 if (!visited[v]) {\n//                     visited[v] = true;\n//                     queue[queue_back++] = v;\n//                 }\n//             }\n//             if (v == user_id_2) {\n//                 path = new uint[](dist[v] / 2 + 1);\n//                 uint current = user_id_2;\n//                 uint index = path.length - 1;\n//                 while (current != user_id_1) {\n//                     path[index--] = current;\n//                     current = prev[current];\n//                 }\n//                 path[index] = user_id_1;\n//                 return path;\n//             }\n//         }\n//     }\n//     return path;\n// }\n\n\n\n// // Helper function to find the node with the minimum distance value\n// function findMinDist(mapping(uint => uint) storage dist1, mapping(uint => bool) storage visited1) private view returns (uint) {\n//     uint minDist = 10000;\n//     uint minNode;\n//     for (uint i = 0; i < numUsers; i++) {\n//         if (!visited1[i] && dist1[i] <= minDist) {\n//             minDist = dist1[i];\n//             minNode = i;\n//         }\n//     }\n//     return minNode;\n// }\n\n\n// function findPrevNode(uint current, mapping(uint => uint) storage dist1) private view returns (uint) {\n//     uint prevNode = 10000;\n//     uint minIndex = numUsers;\n//     for (uint i = 0; i < adjList[current].length; i++) {\n//         uint node = adjList[current][i].dest;\n//         uint weight = adjList[current][i].bal;\n//         if (dist1[node] + weight == dist1[current]) {\n//             if (node < minIndex) {\n//                 minIndex = node;\n//                 prevNode = node;\n//             }\n//         }\n//     }\n//     if (prevNode == 10000) {\n//         return current;\n//     }\n//     return prevNode;\n// }\n\n\n\n  \n\n  function closeAccount(uint user_id_1, uint user_id_2) public returns(bool){\n    if(bytes(userNames[user_id_1]).length == 0){\n      return false;\n    }\n    if(bytes(userNames[user_id_2]).length == 0){\n      return false;\n    }\n    for(uint i=0; i<adjList[user_id_1].length; i++){\n      if(adjList[user_id_1][i].dest == user_id_2){\n        adjList[user_id_1][i] = adjList[user_id_1][adjList[user_id_1].length-1];\n        adjList[user_id_1].pop();\n        break;\n      }\n      if(i == adjList[user_id_1].length-1) return false;\n    }\n    for(uint i=0; i<adjList[user_id_2].length; i++){\n      if(adjList[user_id_2][i].dest == user_id_1){\n        adjList[user_id_2][i] = adjList[user_id_2][adjList[user_id_2].length-1];\n        adjList[user_id_2].pop();\n        break;\n      }\n      if(i == adjList[user_id_2].length-1) return false;\n    }\n    return true;\n  }\n}\n\n\n",
  "sourcePath": "/home/onkar-ubuntu/Desktop/SEM6/CS765/200050022_200050087_200050162/complete_code_directory/contracts/Payment.sol",
  "compiler": {
    "name": "solc",
    "version": "0.8.19+commit.7dd6d404.Emscripten.clang"
  },
  "schemaVersion": "3.4.13",
  "updatedAt": "2023-04-26T09:13:39.261Z",
  "networkType": "ethereum",
  "devdoc": {
    "kind": "dev",
    "methods": {},
    "version": 1
  },
  "userdoc": {
    "kind": "user",
    "methods": {},
    "version": 1
  }
}